{
	"data": {
		"bytecode": {
			"linkReferences": {},
			"object": "6080604052600a600055601460015534801561001a57600080fd5b506101648061002a6000396000f3fe608060405234801561001057600080fd5b506004361061004c5760003560e01c80630b7f1665146100515780630c55699c1461006f5780635197c7aa1461008d578063c2a72df8146100ab575b600080fd5b6100596100c9565b6040516100669190610109565b60405180910390f35b6100776100d3565b6040516100849190610109565b60405180910390f35b6100956100d9565b6040516100a29190610109565b60405180910390f35b6100b36100e8565b6040516100c09190610109565b60405180910390f35b6000600154905090565b60005481565b60006100e36100f1565b905090565b60008054905090565b60008054905090565b61010381610124565b82525050565b600060208201905061011e60008301846100fa565b92915050565b600081905091905056fea26469706673582212208ddd4c3ec87002c91bc78187fc118712ed030585860b331b26446faf3382b54564736f6c63430008070033",
			"opcodes": "PUSH1 0x80 PUSH1 0x40 MSTORE PUSH1 0xA PUSH1 0x0 SSTORE PUSH1 0x14 PUSH1 0x1 SSTORE CALLVALUE DUP1 ISZERO PUSH2 0x1A JUMPI PUSH1 0x0 DUP1 REVERT JUMPDEST POP PUSH2 0x164 DUP1 PUSH2 0x2A PUSH1 0x0 CODECOPY PUSH1 0x0 RETURN INVALID PUSH1 0x80 PUSH1 0x40 MSTORE CALLVALUE DUP1 ISZERO PUSH2 0x10 JUMPI PUSH1 0x0 DUP1 REVERT JUMPDEST POP PUSH1 0x4 CALLDATASIZE LT PUSH2 0x4C JUMPI PUSH1 0x0 CALLDATALOAD PUSH1 0xE0 SHR DUP1 PUSH4 0xB7F1665 EQ PUSH2 0x51 JUMPI DUP1 PUSH4 0xC55699C EQ PUSH2 0x6F JUMPI DUP1 PUSH4 0x5197C7AA EQ PUSH2 0x8D JUMPI DUP1 PUSH4 0xC2A72DF8 EQ PUSH2 0xAB JUMPI JUMPDEST PUSH1 0x0 DUP1 REVERT JUMPDEST PUSH2 0x59 PUSH2 0xC9 JUMP JUMPDEST PUSH1 0x40 MLOAD PUSH2 0x66 SWAP2 SWAP1 PUSH2 0x109 JUMP JUMPDEST PUSH1 0x40 MLOAD DUP1 SWAP2 SUB SWAP1 RETURN JUMPDEST PUSH2 0x77 PUSH2 0xD3 JUMP JUMPDEST PUSH1 0x40 MLOAD PUSH2 0x84 SWAP2 SWAP1 PUSH2 0x109 JUMP JUMPDEST PUSH1 0x40 MLOAD DUP1 SWAP2 SUB SWAP1 RETURN JUMPDEST PUSH2 0x95 PUSH2 0xD9 JUMP JUMPDEST PUSH1 0x40 MLOAD PUSH2 0xA2 SWAP2 SWAP1 PUSH2 0x109 JUMP JUMPDEST PUSH1 0x40 MLOAD DUP1 SWAP2 SUB SWAP1 RETURN JUMPDEST PUSH2 0xB3 PUSH2 0xE8 JUMP JUMPDEST PUSH1 0x40 MLOAD PUSH2 0xC0 SWAP2 SWAP1 PUSH2 0x109 JUMP JUMPDEST PUSH1 0x40 MLOAD DUP1 SWAP2 SUB SWAP1 RETURN JUMPDEST PUSH1 0x0 PUSH1 0x1 SLOAD SWAP1 POP SWAP1 JUMP JUMPDEST PUSH1 0x0 SLOAD DUP2 JUMP JUMPDEST PUSH1 0x0 PUSH2 0xE3 PUSH2 0xF1 JUMP JUMPDEST SWAP1 POP SWAP1 JUMP JUMPDEST PUSH1 0x0 DUP1 SLOAD SWAP1 POP SWAP1 JUMP JUMPDEST PUSH1 0x0 DUP1 SLOAD SWAP1 POP SWAP1 JUMP JUMPDEST PUSH2 0x103 DUP2 PUSH2 0x124 JUMP JUMPDEST DUP3 MSTORE POP POP JUMP JUMPDEST PUSH1 0x0 PUSH1 0x20 DUP3 ADD SWAP1 POP PUSH2 0x11E PUSH1 0x0 DUP4 ADD DUP5 PUSH2 0xFA JUMP JUMPDEST SWAP3 SWAP2 POP POP JUMP JUMPDEST PUSH1 0x0 DUP2 SWAP1 POP SWAP2 SWAP1 POP JUMP INVALID LOG2 PUSH5 0x6970667358 0x22 SLT KECCAK256 DUP14 0xDD 0x4C RETURNDATACOPY 0xC8 PUSH17 0x2C91BC78187FC118712ED030585860B33 SHL 0x26 DIFFICULTY PUSH16 0xAF3382B54564736F6C63430008070033 "
		},
		"gasEstimates": {
			"creation": {
				"codeDepositCost": "71200",
				"executionCost": "44335",
				"totalCost": "115535"
			},
			"external": {
				"fExternal()": "2481",
				"getX()": "2494",
				"getY()": "2415",
				"x()": "2429"
			},
			"internal": {
				"fInternal()": "infinite",
				"fPrivate()": "2123"
			}
		},
		"methodIdentifiers": {
			"fExternal()": "c2a72df8",
			"getX()": "5197c7aa",
			"getY()": "0b7f1665",
			"x()": "0c55699c"
		}
	},
	"abi": [
		{
			"inputs": [],
			"name": "fExternal",
			"outputs": [
				{
					"internalType": "int256",
					"name": "",
					"type": "int256"
				}
			],
			"stateMutability": "view",
			"type": "function"
		},
		{
			"inputs": [],
			"name": "getX",
			"outputs": [
				{
					"internalType": "int256",
					"name": "",
					"type": "int256"
				}
			],
			"stateMutability": "view",
			"type": "function"
		},
		{
			"inputs": [],
			"name": "getY",
			"outputs": [
				{
					"internalType": "int256",
					"name": "",
					"type": "int256"
				}
			],
			"stateMutability": "view",
			"type": "function"
		},
		{
			"inputs": [],
			"name": "x",
			"outputs": [
				{
					"internalType": "int256",
					"name": "",
					"type": "int256"
				}
			],
			"stateMutability": "view",
			"type": "function"
		}
	]
}